:02000002B0004C
:1040000000400B000E530B00000006000C000502E0
:084010000401B41400000000DB
:0440180010500B0039
:10401C00034613F8012B002AFBD1181A01387047FC
:10402C0009480A49884208B505D0094A824202D09B
:10403C00121A00F03DFF0748074A0021121A00F03F
:10404C0045FF014808BD00BF40E6032074520B0039
:10405C00ACE60320ACE60320F0E7032070B5074E76
:10406C00074C00F065FBA41BA4080025AC4200D152
:10407C0070BD56F8043B98470135F7E72C520B00FE
:10408C0050520B0000F013B808B500F021F8BDE851
:10409C00084000F005BB00F0FDB900F003BA007851
:1040AC00B0FA80F04009704701230370704708B5DF
:1040BC0000F092FE4FF4165100F0BAFC01210320DF
:1040CC0000F032FEBDE808400021022000F02CBEBA
:1040DC0038B500F081FE03681B699847002828DD7D
:1040EC0000F07AFE03685B699847C0B2312809D0AA
:1040FC003F2809D030281CD10021BDE838400320CE
:10410C0000F023BE0121F8E700F066FE0546022010
:10411C0000F034FE041E0ADA2D21284600F064FA61
:10412C00614228460A22BDE8384000F060BA2146B8
:10413C00F7E738BD10B5074B074A9A600024C3E96E
:10414C000044032000F01AF921460120BDE810407C
:10415C0000F01CB9ACE603200000FFFF08B5024BD1
:10416C001B689B68019308BD6802030008B5024BED
:10417C001B68DB68019308BD6802030008B5024B9D
:10418C001B689B68019308BD2C02030008B5024B09
:10419C001B68DB68019308BD2C02030008B5024BB9
:1041AC001B681B69019308BD2C02030008B5024B68
:1041BC001B685B69019308BD2C02030008B5024B18
:1041CC001B685B68019308BD1802030008B5024B1D
:1041DC001B685B69019308BD1802030008B5024B0C
:1041EC001B685B6C019308BD4802030008B5024BC9
:1041FC001B685B69019308BD6402030008B5024BA0
:10420C001B68DB68019308BD3C02030008B5024B38
:10421C001B681B69019308BD3C02030008B5024BE7
:10422C001B685B69019308BD3C02030008B5024B97
:10423C001B689B69019308BD3C02030008B5024B47
:10424C001B68DB69019308BD3C02030008B5024BF7
:10425C001B681B6A019308BD3C02030008B5024BA6
:10426C001B689B6A019308BD3C02030008B5024B16
:10427C001B68DB6A019308BD3C02030008B5024BC6
:10428C001B681B6C019308BD3C02030008B5024B74
:10429C001B681B6A019308BD2802030008B5024B7A
:1042AC001B685B6A019308BD2802030008B5024B2A
:1042BC001B689B6A019308BD2802030008B5024BDA
:1042CC001B68DB6A019308BD2802030008B5024B8A
:1042DC001B681B6B019308BD2802030008B5024B39
:1042EC001B685B6B019308BD2802030008B5024BE9
:1042FC001B681B6C019308BD2802030008B5024B18
:10430C001B68DB69019308BD3002030008B5024B42
:10431C001B681B6A019308BD3002030008B5024BF1
:10432C001B681B68019308BD4C02030008B5024BC7
:10433C001B681B69019308BD4C02030008B5024BB6
:10434C001B685B69019308BD4C02030008B5024B66
:10435C001B689B69019308BD4C02030008B5024B16
:10436C001B68DB69019308BD4C02030008B5024BC6
:10437C001B681B6A019308BD4C02030008B5024B75
:10438C001B685B68019308BD2002030008B5024B53
:10439C001B68DB6A019308BD2002030008B5034BC0
:1043AC001B68D3F88830019308BD0000200203007D
:1043BC0008B5034B1B68D3F89430019308BD00007B
:1043CC002002030008B5024B1B685B68019308BD13
:1043DC004002030008B5024B1B689B68019308BDA3
:1043EC004002030008B5024B1B68DB68019308BD53
:1043FC004002030008B5024B1B681B69019308BD02
:10440C004002030008B5024B1B685B69019308BDB1
:10441C004002030008B5024B1B689B69019308BD61
:10442C004002030008B5024B1B68DB69019308BD11
:10443C004002030008B5024B1B681B6A019308BDC0
:10444C004002030008B5024B1B681B6B019308BDAF
:10445C004002030008B5024B1B685B6B019308BD5F
:10446C004002030008B5024B1B681B6C019308BD8E
:10447C004002030008B5024B1B685B6C019308BD3E
:10448C004002030008B5024B1B68DB6B019308BDAF
:10449C004402030008B5024B1B681B68019308BD5E
:1044AC001C02030008B5024B1B685B68019308BD36
:1044BC001C02030008B5024B1B681B6C019308BD62
:1044CC001C02030008B5024B1B685B6C019308BD12
:1044DC001C020300002240681146FFF7ABBF00220C
:1044EC0040681146FFF7B6BF40680022FFF7AABF2D
:1044FC004068002281F00101FFF794BF002340685F
:10450C001A461946FFF786BF002340681A4619461B
:10451C00FFF778BF002240681146FFF76BBF0022FF
:10452C0040681146FFF756BF406800220221FFF792
:10453C0059BF002340681A46FFF744BF024B0322C1
:10454C005A60024A1A607047B8E603202C500B00E0
:10455C0010B5044608462170FFF7D0FE00236360B7
:10456C00204610BD054B02221A60054B054A9A6085
:10457C000020C3E90000FFF701BF00BFCCE6032019
:10458C00C0E603200000FFFF024800230360FFF792
:10459C0025BE00BFD0E60320F8B506460D468F18A1
:1045AC000024BD420CD0336815F8011B9B683046C3
:1045BC009847031E01DB1C44F3E7002C08BF1C4684
:1045CC002046F8BD13B50446084659B10191FFF7D2
:1045DC001FFD23680199DB680246204602B0BDE846
:1045EC001040184702B010BD03689B68184730B5DF
:1045FC008BB00023012A8DF8243098BF0A2209AC15
:10460C000D46B1FBF2F101FB125303F0FF03092B32
:10461C0094BF30333733DBB2AA4204F8013DEFD9F3
:10462C002146FFF7CFFF0BB030BD0000014B024A13
:10463C001A607047D4E6032060500B00024B1A68D6
:10464C00024B1A60704700BF40E60320D8E60320F7
:10465C00014B00229A607047DCE60320014B186086
:10466C00704700BF44E6032008B50B4B43B100F084
:10467C0063F903681B699847002801DDAFF30080DC
:10468C00064B43B100F0A8FB03681B699847002850
:10469C0001DDAFF3008008BD000000000000000049
:1046AC0008B5FFF7E1FFFFF791FD014B186008BD5E
:1046BC0040E703200548064A064908B5121A00F0DF
:1046CC00F7FB054B054A1A6008BD00BF00F4032038
:1046DC0004F40320E0520B0000F403201E1C279A64
:1046EC0007B5002300931A466FF07701FFF760FEC1
:1046FC0003B05DF804FB000007B543880A2B08D013
:10470C00502B0BD1094B1B684BB103B05DF804EB7C
:10471C001847FFF7E5FF03B05DF804FB0023009397
:10472C001A466FF07701FFF743FEF4E7F0E603203B
:10473C0010B512480021FFF7C5FE114B1A68114B3A
:10474C009A42114B0CBF012200221A7001D0FFF7C4
:10475C00B1FFFFF733FD044600F0C0FB0B4B13B168
:10476C002046AFF3008000210848FFF78BFEBDE820
:10477C00104007480021FFF711BE00BF69460B002F
:10478C0000F403201E1C279AECE603200000000016
:10479C0005470B00704710B518210446FFF77DFC48
:1047AC00204610BDF0B5037D062B8DB00E4600F1F2
:1047BC0004074FF0000412D000F1080515F8011D94
:1047CC000A223046FFF713FFAF42044419D0002CE5
:1047DC00F4D02E213046FFF707FF0444EEE72F23D9
:1047EC006A4639460A208DF80040FFF7FFFC684600
:1047FC00FFF70EFC33680246DB6869463046984783
:10480C00044620460DB0F0BD10B5054B04461122F0
:10481C0040F8043B002100F059FB204610BD00BFBE
:10482C0088500B000346074A10B543F8042B01F1DE
:10483C00100251F8044B43F8044B9142F9D10A7819
:10484C001A7010BD88500B0010B59DF8084044EA52
:10485C00032343EA024242EA0161042341600375E7
:10486C0010BD000007B5064B0360CB7800938B7826
:10487C004A780978FFF7E8FF03B05DF804FB00BF46
:10488C0088500B00417470477047704708B5002181
:10489C00007CFFF75BFD40EAE07008BD08B5012124
:1048AC00007CFFF753FD40EAE07008BD08B5007CC2
:1048BC00FFF744FD20EAE07008BD08B5007CFFF767
:1048CC0035FD20EAE07008BD13B50446007C01916B
:1048DC00FFF734FD0028019901DC607C20B1207CBD
:1048EC00FFF73CFD20EAE07002B010BD007CFFF742
:1048FC003DBD10B514210446FFF7CFFB204610BD7B
:10490C0010B54FF47A73044608460021C4E901132C
:10491C00044B23600123207463741146FFF7FEFCE3
:10492C00204610BD9C500B0010B5142204460021EB
:10493C0000F0CCFA204610BD10B50F4C88B003A87F
:10494C00FFF7F2FF2178BFF35B8F11F001010FD15C
:10495C0020460191FFF7A3FB019948B103AA074830
:10496C00FFF7CEFF2046FFF79FFB054800F09AFAB1
:10497C00024808B010BD00BFF4E60320F8E603209F
:10498C0095480B0070474174704708B5007CFFF7E1
:10499C0065FC20EAE07008BD08B5007CFFF736FC2A
:1049AC0020EAE07008BD08B5007CFFF73FFC40EA48
:1049BC00E07008BD08B5007CFFF730FC40EAE07001
:1049CC0008BD007CFFF73ABC37B5457C04462DB1D9
:1049DC00207C03B0BDE83040FFF710BC007C019197
:1049EC00FFF73CFC00280199F2DC284603B030BDEF
:1049FC0010B514210446FFF750FB204610BD0000F3
:104A0C0010B54FF47A730446084611460022C4E9E7
:104A1C000123044B2360012320746374FFF72EFCE5
:104A2C00204610BDCC500B00007C0023FFF71EBCB1
:104A3C000022FFF7F9BF7047F8B5064615460C463D
:104A4C008F18BC4206D0336814F8011B9B683046A3
:104A5C009847F6E72846F8BD007C0022FFF716BC05
:104A6C00007C0021FFF71ABC007C0021FFF71EBC64
:104A7C00007C0021FFF722BC007C0021FFF726BC44
:104A8C0010B514210446FFF708FB204610BD0000AA
:104A9C0038B5044615464FF47A730022C4E9012355
:104AAC00094B2174084623602946FFF71FFCBF30D1
:104ABC0008D16B69DB0705D56868FFF7F3FCE8687C
:104ACC00FFF7F0FC204638BDFC500B00002240687C
:104ADC001146FFF78FBC002240681146FFF7AABCB5
:104AEC00002240681146FFF7B5BC40680022FFF772
:104AFC00A9BC4068002281F00101FFF793BC0023A0
:104B0C0040681A461946FFF785BC002340681A46D0
:104B1C001946FFF777BC002240681146FFF75ABCD4
:104B2C00406800220221FFF75DBC002340681A4652
:104B3C00FFF748BC024B04225A60024A1A607047C5
:104B4C000CE7032024510B00002340681A46FFF7A2
:104B5C0039BC406800220221FFF744BC00224068A7
:104B6C001146FFF737BC002240681146FFF742BCE4
:104B7C00002340681A461946FFF744BC00234068DE
:104B8C001A461946FFF746BC40680021FFF76ABC7D
:104B9C0040680021FFF76EBC4068002281F00101E3
:104BAC00FFF740BC40680022FFF74CBC0022406875
:104BBC001146FFF74FBC002240681146FFF73ABC84
:104BCC002DE9F04395B014460D460746FFF71CFE41
:104BDC0000211C220DA8009100F078F940230C93C1
:104BEC0020466B460CAA0021FFF7C0FA04460028A9
:104BFC004BD1024601216868FFF7FCFB022180467D
:104C0C0022466868FFF7F6FB009E81462146002E7F
:104C1C003BD0002939D17368022B03D00A2B11D059
:104C2C00F669F4E7B8F1000FFAD0716906A80431FF
:104C3C0007ADFFF717FE0FCD3C1D0FC42B6823707B
:104C4C004146EDE7B9F1000FEAD07469102201A8D2
:104C5C0000F03CF906238DF8143001AD04F1080383
:104C6C001834186859682A4603C20833A3421546FB
:104C7C00F7D101A906A807ADFFF7D4FD0FCD3C1D58
:104C8C000FC42B6823704946CAE70098FFF766FAF1
:104C9C00384615B0BDE8F083024B034A1A60002277
:104CAC005A60704714E7032060510B00232813B59A
:104CBC0002D9002002B010BDA0F10B03022B1AD8B0
:104CCC00174C2178BFF35B8F11F001010BD12046FB
:104CDC000191FFF7E4F9019928B11248FFF738FC6C
:104CEC002046FFF7E1F90F4B1878FFF70FFB002870
:104CFC00DFD10120DEE7012809D800F0ADF8002152
:104D0C00007CFFF7EBFA80F00100C0B2D2E7093863
:104D1C000128EED800F060F8007CFFF797FAF2E774
:104D2C001CE7032020E70320232838B504460D4652
:104D3C000AD8FF2908D0FFF7B9FF28B12946204629
:104D4C00BDE83840FFF71ABA38BD38B504460D46F1
:104D5C00FFF71CFAFF2810D0062804D84D2323FA9D
:104D6C0000F0C30709D42046FFF7A0FF28B129465D
:104D7C002046BDE83840FFF711BA38BD10B50446DF
:104D8C00FFF704FA031FDBB2012B08D92046FFF70B
:104D9C008DFF20B12046BDE81040FFF707BA002078
:104DAC0010BD704738B5044614252A46002100F082
:104DBC008DF825804025074925812846258200F05D
:104DCC006FF804496060284600F06AF8E0602046FD
:104DDC0038BD00BF94510B0030B50E4D2978BFF390
:104DEC005B8F11F0010487B011D12846FFF757F9FA
:104DFC0068B101A8FFF7D6FF01AA21460648FFF7C4
:104E0C00FFFD2846FFF750F9044800F04BF8024824
:104E1C0007B030BD28E703202CE70320AF4D0B0073
:104E2C007047000038B50A4B036001230446436108
:104E3C000849202000F034F8202560600549A56061
:104E4C00284600F02DF8C4E90305204638BD00BF04
:104E5C001800010094510B0030B50E4D2978BFF3AA
:104E6C005B8F11F0010487B011D12846FFF717F9B9
:104E7C0068B16846FFF7D6FF6A4621460648FFF739
:104E8C0007FE2846FFF710F9044800F00BF802481B
:104E9C0007B030BD44E7032048E703202D4E0B003C
:104EAC00FFF7F9B8002301461A46184600F044B83B
:104EBC000A44914200F1FF3300D1704710B511F84C
:104ECC00014B03F8014F9142F9D110BD0244034646
:104EDC00934200D1704703F8011BF9E738B5104B2A
:104EEC001D68AB6B0446B3B91820FFF7D3FA024622
:104EFC00A86320B90B4B0C484221FFF7DBFA0B4996
:104F0C000B4BC0E900130B4B83600B2383810021F7
:104F1C000120C2E90401AB6B00221C615A6138BD4F
:104F2C0044E6032095510B00AC510B000E33CDAB76
:104F3C0034126DE6ECDE05002DE9F843DFF8B8809D
:104F4C000646D8F800001F460D46914600F056F86C
:104F5C00254B1C6834B9254C1C60254B13B11B68C0
:104F6C00C4F8883063681F2B07DDD8F8000000F008
:104F7C0047F84FF0FF30BDE8F8834EB3D4F8880003
:104F8C0088B91C4B23B9D8F8000000F038F8F0E7CA
:104F9C004FF48470FFF77EFA0028F4D00023C0E9A8
:104FAC004033C4F88800636840F8239001229A408B
:104FBC0000EB8301D0F800311343C0F80031022E0E
:104FCC00C1F8807002BFD0F804311343C0F804312B
:104FDC006368D8F800005A1C0233626044F823500E
:104FEC0000F00EF80020C6E7E8E703205CE703209A
:104FFC0000000000A1440B00A8E603207047704796
:10500C00704700002D400B0069400B0091400B00D5
:10501C0095400B00000000000000000000000000A4
:10502C003F450B0035450B002B450B0021450B0074
:10503C0015450B0009450B00954B0B009D4B0B00C8
:10504C00FD440B00F5440B00EB440B00E1440B005A
:10505C00CD4B0B006170700025592D256D2D2564ED
:10506C005425483A254D3A2553257A0061736374CB
:10507C00696D65000000000000000000B1470B00E6
:10508C00A1470B00A3470B0000000000000000002C
:10509C0097480B00FF480B00D5480B00A5450B00AB
:1050AC00C7480B0099480B00A9480B00F9480B00A6
:1050BC00B9480B0091480B000000000000000000F4
:1050CC0091490B00FD490B00D5490B00A5450B0080
:1050DC00A5490B00C1490B00B3490B00CF490B008C
:1050EC0093490B0097490B000000000000000000E2
:1050FC00434A0B008D4A0B00654A0B00454A0B00D6
:10510C006D4A0B00754A0B007D4A0B00854A0B005B
:10511C000000000000000000374B0B002D4B0B0073
:10512C00234B0B00D94A0B00174B0B000B4B0B00FE
:10513C00954B0B009D4B0B00FF4A0B00F74A0B00E5
:10514C00ED4A0B00E34A0B00CD4B0B0000000000B6
:10515C0000000000554B0B005F4B0B00694B0B0024
:10516C00734B0B007D4B0B00894B0B00954B0B00CD
:10517C009D4B0B00A54B0B00B14B0B00B94B0B001F
:10518C00C34B0B00CD4B0B00005245454E54206DCC
:10519C00616C6C6F63207375636365656465640033
:1051AC002F6D6E742F776F726B73706163652F77D1
:1051BC006F726B73706163652F4743432D31302DD4
:1051CC00706970656C696E652F6A656E6B696E735C
:1051DC002D4743432D31302D706970656C696E65B8
:1051EC002D34385F32303230313132345F31363039
:1051FC00363138303634312F7372632F6E65776CDD
:10520C0069622F6E65776C69622F6C6962632F73AC
:10521C0074646C69622F72616E642E63000000000E
:10522C0041410B0049450B0071450B0095450B00A6
:10523C0039460B0049460B005D460B00414B0B00F9
:04524C00A54C0B0062
:10525000040000001400000003000000474E550049
:10526000F291BBBAAEA8DBB0BB8C5DAE65B6AF3514
:0452700096AA94E482
:1052740078500B0048E60320000000000000000006
:10528400000000000000000000000000000000001A
:10529400000000000000000000000000000000000A
:1052A40000000000000000000000000000000000FA
:1052B40000000000000000000000000000000000EA
:1052C40000000000000000000000000000000000DA
:0C52D4000000000000000000ECE70320D8
:0452E00000000000CA
:1052EA0000000102030405060708090A0B0C0D0E4B
:1052FA000F101112131415161718191A1B1C1D1E3C
:04530A001F20280038
:04530E007856341287
:04000003B000401CED
:00000001FF
