:02000002B0004C
:1040000000400B002E530B00000006000C000502C0
:084010000401B41400000000DB
:044018002C500B001D
:10401C00034613F8012B002AFBD1181A01387047FC
:10402C0009480A49884208B505D0094A824202D09B
:10403C00121A00F04BFF0748074A0021121A00F031
:10404C0053FF014808BD00BF40E6032094520B000B
:10405C00ACE60320ACE60320F0E7032070B5074E76
:10406C00074C00F073FBA41BA4080025AC4200D144
:10407C0070BD56F8043B98470135F7E74C520B00DE
:10408C0070520B0000F013B808B500F021F8BDE831
:10409C00084000F013BB00F007BA00F00DBA00782E
:1040AC00B0FA80F04009704701230370704708B5DF
:1040BC0000F0A0FE4FF4165100F0C8FC01210320C3
:1040CC0000F040FEBDE808400021022000F03ABE9E
:1040DC0038B500F08FFE03681B69984700282FDD68
:1040EC0000F088FE03685B699847C0B2312809D09C
:1040FC003F2809D030281CD10021BDE838400320CE
:10410C0000F031BE0121F8E700F074FE05460220F4
:10411C0000F042FE041E0ADA2D21284600F072FA45
:10412C00614228460A22BDE8384000F06EBA2146AA
:10413C00F7E700F05FFEBDE83840024900F05EBAD8
:10414C0038BD00BF40500B0010B5074B074A9A60B2
:10415C000024C3E90044032000F01AF92146012091
:10416C00BDE8104000F01CB9ACE603200000FFFFD6
:10417C0008B5024B1B689B68019308BD68020300DD
:10418C0008B5024B1B68DB68019308BD680203008D
:10419C0008B5024B1B689B68019308BD2C020300F9
:1041AC0008B5024B1B68DB68019308BD2C020300A9
:1041BC0008B5024B1B681B69019308BD2C02030058
:1041CC0008B5024B1B685B69019308BD2C02030008
:1041DC0008B5024B1B685B68019308BD180203000D
:1041EC0008B5024B1B685B69019308BD18020300FC
:1041FC0008B5024B1B685B6C019308BD48020300B9
:10420C0008B5024B1B685B69019308BD640203008F
:10421C0008B5024B1B68DB68019308BD3C02030028
:10422C0008B5024B1B681B69019308BD3C020300D7
:10423C0008B5024B1B685B69019308BD3C02030087
:10424C0008B5024B1B689B69019308BD3C02030037
:10425C0008B5024B1B68DB69019308BD3C020300E7
:10426C0008B5024B1B681B6A019308BD3C02030096
:10427C0008B5024B1B689B6A019308BD3C02030006
:10428C0008B5024B1B68DB6A019308BD3C020300B6
:10429C0008B5024B1B681B6C019308BD3C02030064
:1042AC0008B5024B1B681B6A019308BD280203006A
:1042BC0008B5024B1B685B6A019308BD280203001A
:1042CC0008B5024B1B689B6A019308BD28020300CA
:1042DC0008B5024B1B68DB6A019308BD280203007A
:1042EC0008B5024B1B681B6B019308BD2802030029
:1042FC0008B5024B1B685B6B019308BD28020300D9
:10430C0008B5024B1B681B6C019308BD2802030007
:10431C0008B5024B1B68DB69019308BD3002030032
:10432C0008B5024B1B681B6A019308BD30020300E1
:10433C0008B5024B1B681B68019308BD4C020300B7
:10434C0008B5024B1B681B69019308BD4C020300A6
:10435C0008B5024B1B685B69019308BD4C02030056
:10436C0008B5024B1B689B69019308BD4C02030006
:10437C0008B5024B1B68DB69019308BD4C020300B6
:10438C0008B5024B1B681B6A019308BD4C02030065
:10439C0008B5024B1B685B68019308BD2002030043
:1043AC0008B5024B1B68DB6A019308BD20020300B1
:1043BC0008B5034B1B68D3F88830019308BD000087
:1043CC002002030008B5034B1B68D3F8943001930B
:1043DC0008BD00002002030008B5024B1B685B6897
:1043EC00019308BD4002030008B5024B1B689B6893
:1043FC00019308BD4002030008B5024B1B68DB6843
:10440C00019308BD4002030008B5024B1B681B69F1
:10441C00019308BD4002030008B5024B1B685B69A1
:10442C00019308BD4002030008B5024B1B689B6951
:10443C00019308BD4002030008B5024B1B68DB6901
:10444C00019308BD4002030008B5024B1B681B6AB0
:10445C00019308BD4002030008B5024B1B681B6B9F
:10446C00019308BD4002030008B5024B1B685B6B4F
:10447C00019308BD4002030008B5024B1B681B6C7E
:10448C00019308BD4002030008B5024B1B685B6C2E
:10449C00019308BD4002030008B5024B1B68DB6B9F
:1044AC00019308BD4402030008B5024B1B681B684E
:1044BC00019308BD1C02030008B5024B1B685B6826
:1044CC00019308BD1C02030008B5024B1B681B6C52
:1044DC00019308BD1C02030008B5024B1B685B6C02
:1044EC00019308BD1C020300002240681146FFF72F
:1044FC00ABBF002240681146FFF7B6BF40680022F0
:10450C00FFF7AABF4068002281F00101FFF794BFBA
:10451C00002340681A461946FFF786BF00234068FF
:10452C001A461946FFF778BF002240681146FFF77C
:10453C006BBF002240681146FFF756BF406800224F
:10454C000221FFF759BF002340681A46FFF744BF0A
:10455C00024B03225A60024A1A607047B8E60320E5
:10456C004C500B0010B5044608462170FFF7D0FEE6
:10457C0000236360204610BD054B02221A60054BD8
:10458C00054A9A600020C3E90000FFF701BF00BF95
:10459C00CCE60320C0E603200000FFFF0248002306
:1045AC000360FFF725BE00BFD0E60320F8B5064632
:1045BC000D468F180024BD420CD0336815F8011B32
:1045CC009B6830469847031E01DB1C44F3E7002C24
:1045DC0008BF1C462046F8BD13B50446084659B121
:1045EC000191FFF715FD23680199DB68024620460F
:1045FC0002B0BDE81040184702B010BD08B5FFF777
:10460C00EBFF08BD03689B68184730B58BB00023DF
:10461C00012A8DF8243098BF0A2209AC0D46B1FB53
:10462C00F2F101FB125303F0FF03092B94BF30335B
:10463C003733DBB2AA4204F8013DEFD92146FFF72C
:10464C00CBFF0BB030BD0000014B024A1A60704723
:10465C00D4E6032080500B00024B1A68024B1A6000
:10466C00704700BF40E60320D8E60320014B002230
:10467C009A607047DCE60320014B1860704700BF5E
:10468C0044E6032008B50B4B43B100F063F9036813
:10469C001B699847002801DDAFF30080064B43B13E
:1046AC0000F0A8FB03681B699847002801DDAFF3F5
:1046BC00008008BD000000000000000008B5FFF7F6
:1046CC00E1FFFFF78DFD014B186008BD40E70320AB
:1046DC000548064A064908B5121A00F0F7FB054BC7
:1046EC00054A1A6008BD00BF00F4032004F403203F
:1046FC0000530B0000F403201E1C279A07B500235F
:10470C0000931A466FF07701FFF75CFE03B05DF87B
:10471C0004FB000007B543880A2B08D0502B0BD1A3
:10472C00094B1B684BB103B05DF804EB1847FFF75E
:10473C00E5FF03B05DF804FB002300931A466FF00D
:10474C007701FFF73FFEF4E7F0E6032010B51248BF
:10475C000021FFF7C1FE114B1A68114B9A42114B05
:10476C000CBF012200221A7001D0FFF7B1FFFFF736
:10477C002FFD044600F0C0FB0B4B13B12046AFF3EA
:10478C00008000210848FFF787FEBDE8104007486D
:10479C000021FFF70DBE00BF85460B0000F403207F
:1047AC001E1C279AECE603200000000021470B009A
:1047BC00704710B518210446FFF76FFC204610BD5A
:1047CC00F0B5037D062B8DB00E4600F104074FF0BB
:1047DC00000412D000F1080515F8011D0A2230461C
:1047EC00FFF713FFAF42044419D0002CF4D02E2154
:1047FC003046FFF707FF0444EEE72F236A4639469D
:10480C000A208DF80040FFF7FBFC6846FFF700FC20
:10481C0033680246DB6869463046984704462046B2
:10482C000DB0F0BD10B5054B0446112240F8043B09
:10483C00002100F059FB204610BD00BFA8500B0012
:10484C000346074A10B543F8042B01F1100251F846
:10485C00044B43F8044B9142F9D10A781A7010BDFD
:10486C00A8500B0010B59DF8084044EA032343EA16
:10487C00024242EA016104234160037510BD00004D
:10488C0007B5064B0360CB7800938B784A78097890
:10489C00FFF7E8FF03B05DF804FB00BFA8500B0066
:1048AC00417470477047704708B50021007CFFF7D2
:1048BC0057FD40EAE07008BD08B50121007CFFF708
:1048CC004FFD40EAE07008BD08B5007CFFF740FDE5
:1048DC0020EAE07008BD08B5007CFFF731FD20EA46
:1048EC00E07008BD13B50446007C0191FFF730FD64
:1048FC000028019901DC607C20B1207CFFF738FD99
:10490C0020EAE07002B010BD007CFFF739BD10B595
:10491C0014210446FFF7C1FB204610BD10B54FF41F
:10492C007A73044608460021C4E90113044B236042
:10493C000123207463741146FFF7FAFC204610BD66
:10494C00BC500B0010B514220446002100F0CCFA28
:10495C00204610BD10B50F4C88B003A8FFF7F2FF2E
:10496C002178BFF35B8F11F001010FD1204601912B
:10497C00FFF795FB019948B103AA0748FFF7CEFF53
:10498C002046FFF791FB054800F09AFA024808B060
:10499C0010BD00BFF4E60320F8E60320B1480B007D
:1049AC0070474174704708B5007CFFF761FC20EA42
:1049BC00E07008BD08B5007CFFF732FC20EAE0701F
:1049CC0008BD08B5007CFFF73BFC40EAE07008BD71
:1049DC0008B5007CFFF72CFC40EAE07008BD007CB9
:1049EC00FFF736BC37B5457C04462DB1207C03B0AF
:1049FC00BDE83040FFF70CBC007C0191FFF738FCA0
:104A0C0000280199F2DC284603B030BD10B5142102
:104A1C000446FFF742FB204610BD000010B54FF4D2
:104A2C007A730446084611460022C4E90123044B5C
:104A3C002360012320746374FFF72AFC204610BD09
:104A4C00EC500B00007C0023FFF71ABC0022FFF790
:104A5C00F9BF7047F8B5064615460C468F18BC4290
:104A6C0006D0336814F8011B9B6830469847F6E76C
:104A7C002846F8BD007C0022FFF712BC007C002108
:104A8C00FFF716BC007C0021FFF71ABC007C00214C
:104A9C00FFF71EBC007C0021FFF722BC10B51421CF
:104AAC000446FFF7FAFA204610BD000038B504465C
:104ABC0015464FF47A730022C4E90123094B217483
:104ACC00084623602946FFF71BFCBF3008D16B69F1
:104ADC00DB0705D56868FFF7EFFCE868FFF7ECFC2F
:104AEC00204638BD1C510B00002240681146FFF7D0
:104AFC008BBC002240681146FFF7A6BC0022406820
:104B0C001146FFF7B1BC40680022FFF7A5BC406816
:104B1C00002281F00101FFF78FBC002340681A4688
:104B2C001946FFF781BC002340681A461946FFF767
:104B3C0073BC002240681146FFF756BC4068002247
:104B4C000221FFF759BC002340681A46FFF744BC0A
:104B5C00024B04225A60024A1A6070470CE7032089
:104B6C0044510B00002340681A46FFF735BC4068DF
:104B7C0000220221FFF740BC002240681146FFF7DB
:104B8C0033BC002240681146FFF73EBC002340684E
:104B9C001A461946FFF740BC002340681A461946CE
:104BAC00FFF742BC40680021FFF766BC406800215B
:104BBC00FFF76ABC4068002281F00101FFF73CBCA2
:104BCC0040680022FFF748BC002240681146FFF7FE
:104BDC004BBC002240681146FFF736BC2DE9F04370
:104BEC0095B014460D460746FFF71CFE00211C220B
:104BFC000DA8009100F078F940230C9320466B46E9
:104C0C000CAA0021FFF7BCFA044600284BD102463F
:104C1C0001216868FFF7F8FB02218046224668688C
:104C2C00FFF7F2FB009E81462146002E3BD0002967
:104C3C0039D17368022B03D00A2B11D0F669F4E733
:104C4C00B8F1000FFAD0716906A8043107ADFFF76F
:104C5C0017FE0FCD3C1D0FC42B6823704146EDE7AA
:104C6C00B9F1000FEAD07469102201A800F03CF9E8
:104C7C0006238DF8143001AD04F1080318341868BC
:104C8C0059682A4603C20833A3421546F7D101A935
:104C9C0006A807ADFFF7D4FD0FCD3C1D0FC42B6844
:104CAC0023704946CAE70098FFF762FA384615B0F8
:104CBC00BDE8F083024B034A1A6000225A60704729
:104CCC0014E7032080510B00232813B502D90020D0
:104CDC0002B010BDA0F10B03022B1AD8174C21788F
:104CEC00BFF35B8F11F001010BD120460191FFF74F
:104CFC00D6F9019928B11248FFF734FC2046FFF78A
:104D0C00D3F90F4B1878FFF70BFB0028DFD10120EC
:104D1C00DEE7012809D800F0ADF80021007CFFF790
:104D2C00E7FA80F00100C0B2D2E709380128EED8CA
:104D3C0000F060F8007CFFF793FAF2E71CE7032021
:104D4C0020E70320232838B504460D460AD8FF294E
:104D5C0008D0FFF7B9FF28B129462046BDE83840F6
:104D6C00FFF716BA38BD38B504460D46FFF718FAEA
:104D7C00FF2810D0062804D84D2323FA00F0C307CF
:104D8C0009D42046FFF7A0FF28B129462046BDE8EC
:104D9C003840FFF70DBA38BD10B50446FFF700FADE
:104DAC00031FDBB2012B08D92046FFF78DFF20B182
:104DBC002046BDE81040FFF703BA002010BD704735
:104DCC0038B5044614252A46002100F08DF82580BC
:104DDC004025074925812846258200F06FF80449B3
:104DEC006060284600F06AF8E060204638BD00BFDD
:104DFC00B4510B0030B50E4D2978BFF35B8F11F019
:104E0C00010487B011D12846FFF749F968B101A810
:104E1C00FFF7D6FF01AA21460648FFF7FFFD2846FB
:104E2C00FFF742F9044800F04BF8024807B030BDD8
:104E3C0028E703202CE70320CB4D0B007047000024
:104E4C0038B50A4B0360012304464361084920200E
:104E5C0000F034F8202560600549A560284600F074
:104E6C002DF8C4E90305204638BD00BF1800010029
:104E7C00B4510B0030B50E4D2978BFF35B8F11F098
:104E8C00010487B011D12846FFF709F968B16846CB
:104E9C00FFF7D6FF6A4621460648FFF707FE28466D
:104EAC00FFF702F9044800F00BF8024807B030BDD8
:104EBC0044E7032048E70320494E0B00FFF7EBB80B
:104ECC00002301461A46184600F044B80A449142A1
:104EDC0000F1FF3300D1704710B511F8014B03F806
:104EEC00014F9142F9D110BD02440346934200D1C7
:104EFC00704703F8011BF9E738B5104B1D68AB6B15
:104F0C000446B3B91820FFF7CFFA0246A86320B9BC
:104F1C000B4B0C484221FFF7D7FA0B490B4BC0E95E
:104F2C0000130B4B83600B23838100210120C2E90A
:104F3C000401AB6B00221C615A6138BD44E60320AE
:104F4C00B5510B00CC510B000E33CDAB34126DE6CA
:104F5C00ECDE05002DE9F843DFF8B8800646D8F8FA
:104F6C0000001F460D46914600F056F8254B1C6874
:104F7C0034B9254C1C60254B13B11B68C4F8883020
:104F8C0063681F2B07DDD8F8000000F047F84FF0DE
:104F9C00FF30BDE8F8834EB3D4F8880088B91C4BB9
:104FAC0023B9D8F8000000F038F8F0E74FF484701B
:104FBC00FFF77AFA0028F4D00023C0E94033C4F894
:104FCC008800636840F8239001229A4000EB83012B
:104FDC00D0F800311343C0F80031022EC1F88070B4
:104FEC0002BFD0F804311343C0F804316368D8F819
:104FFC0000005A1C0233626044F8235000F00EF893
:10500C000020C6E7E8E703205CE70320000000006F
:10501C00B5440B00A8E603207047704770470000AA
:10502C002D400B0069400B0091400B0095400B008C
:10503C00000000005800000000000000000000000C
:10504C0053450B0049450B003F450B0035450B0004
:10505C0029450B001D450B00B14B0B00B94B0B0048
:10506C0011450B0009450B00FF440B00F5440B00E8
:10507C00E94B0B006170700025592D256D2D2564B1
:10508C005425483A254D3A2553257A0061736374AB
:10509C00696D65000000000000000000CD470B00AA
:1050AC00BD470B00BF470B000000000000000000D4
:1050BC00B3480B001B490B00F1480B00B9450B0022
:1050CC00E3480B00B5480B00C5480B0015490B0015
:1050DC00D5480B00AD480B0000000000000000009C
:1050EC00AD490B00194A0B00F1490B00B9450B00F7
:1050FC00C1490B00DD490B00CF490B00EB490B00FC
:10510C00AF490B00B3490B00000000000000000089
:10511C005F4A0B00A94A0B00814A0B00614A0B0045
:10512C00894A0B00914A0B00994A0B00A14A0B00CB
:10513C000000000000000000534B0B00494B0B001B
:10514C003F4B0B00F54A0B00334B0B00274B0B006E
:10515C00B14B0B00B94B0B001B4B0B00134B0B0053
:10516C00094B0B00FF4A0B00E94B0B000000000041
:10517C0000000000714B0B007B4B0B00854B0B00B0
:10518C008F4B0B00994B0B00A54B0B00B14B0B003D
:10519C00B94B0B00C14B0B00CD4B0B00D54B0B008F
:1051AC00DF4B0B00E94B0B00005245454E54206D74
:1051BC00616C6C6F63207375636365656465640013
:1051CC002F6D6E742F776F726B73706163652F77B1
:1051DC006F726B73706163652F4743432D31302DB4
:1051EC00706970656C696E652F6A656E6B696E733C
:1051FC002D4743432D31302D706970656C696E6598
:10520C002D34385F32303230313132345F31363018
:10521C00363138303634312F7372632F6E65776CBC
:10522C0069622F6E65776C69622F6C6962632F738C
:10523C0074646C69622F72616E642E6300000000EE
:10524C0055410B005D450B0085450B00A9450B0036
:10525C0055460B0065460B0079460B005D4B0B0069
:04526C00C14C0B0026
:10527000040000001400000003000000474E550029
:10528000252CB3C53DC891019BACB6EB0192B4236C
:0452900078800DD045
:1052940098500B0048E603200000000000000000C6
:1052A40000000000000000000000000000000000FA
:1052B40000000000000000000000000000000000EA
:1052C40000000000000000000000000000000000DA
:1052D40000000000000000000000000000000000CA
:1052E40000000000000000000000000000000000BA
:0C52F4000000000000000000ECE70320B8
:0453000000000000A9
:10530A0000000102030405060708090A0B0C0D0E2A
:10531A000F101112131415161718191A1B1C1D1E1B
:04532A001F20280018
:04532E007856341267
:04000003B000401CED
:00000001FF
